:100000000C9462000C948A000C948A000C948A0070
:100010000C948A000C948A000C948A000C948A0038
:100020000C948A000C948A000C948A000C948A0028
:100030000C948A000C948A000C948A000C948A0018
:100040000C9494040C948A000C948A000C948A00FA
:100050000C948A000C948A000C948A000C948A00F8
:100060000C94DE040C948A00000000002400270099
:100070002A0000000000250028002B0000000000DE
:1000800023002600290004040404040404040202DA
:100090000202020203030303030301020408102007
:1000A0004080010204081020010204081020000012
:1000B0000008000201000003040700000000000027
:1000C0000000FD0511241FBECFEFD8E0DEBFCDBF7D
:1000D00011E0A0E0B1E0E4E2F1E102C005900D9290
:1000E000A035B107D9F722E0A0E5B1E001C01D922B
:1000F000A733B207E1F710E0C2E6D0E004C02197D1
:10010000FE010E948A08C136D107C9F70E941D0668
:100110000C9490080C940000833081F028F4813016
:1001200099F08230A9F008958730A9F08830C9F09D
:100130008430B1F4809180008F7D03C08091800075
:100140008F7780938000089584B58F7784BD08955C
:1001500084B58F7DFBCF8091B0008F778093B00006
:1001600008958091B0008F7DF9CFCF93DF93E0EBBE
:10017000F0E08491ECE9F0E0D491E8E8F0E0C4919B
:10018000CC23A1F081110E948C00EC2FF0E0EE0F47
:10019000FF1FE458FF4FA591B491EC91ED2381E04E
:1001A00090E009F480E0DF91CF91089580E090E045
:1001B000FACF1F93CF93DF93282F30E0F901E25558
:1001C000FF4F8491F901E656FF4FD491F901EA57A8
:1001D000FF4FC491CC23A9F0162F81110E948C00EF
:1001E000EC2FF0E0EE0FFF1FEE58FF4FA591B491FA
:1001F0008FB7F894EC91111108C0D095DE23DC93F1
:100200008FBFDF91CF911F910895DE2BF8CF3FB7BD
:10021000F89480911B0290911C02A0911D02B09154
:100220001E0226B5A89B05C02F3F19F00196A11DFF
:10023000B11D3FBFBA2FA92F982F8827BC01CD0130
:10024000620F711D811D911D42E0660F771F881F8F
:10025000991F4A95D1F708958F929F92AF92BF92BE
:10026000CF92DF92EF92FF924B015C010E94070157
:100270006B017C010E9407016C197D098E099F09A1
:10028000683E734081059105A8F321E0821A910828
:10029000A108B10888EEC80E83E0D81EE11CF11C4D
:1002A00081149104A104B10429F7FF90EF90DF902D
:1002B000CF90BF90AF909F908F900895089508952C
:1002C000AF92BF92CF92DF92EF92FF920F931F9364
:1002D000CF93DF936C017B018B01040F151FEB01A2
:1002E0005E01AE18BF08C017D10759F06991D60159
:1002F000ED91FC910190F081E02DC6010995892BCB
:1003000079F7C501DF91CF911F910F91FF90EF9089
:10031000DF90CF90BF90AF90089508952091910104
:10032000260F3327331F21323105ECF42091DA01F7
:10033000FC0190E080E0243069F082E00895A09113
:1003400091012191AC014F585E4FA40FB52FB11D03
:100350002C930196861798F380919101680F609312
:10036000910180E0089581E008951092DA0181E022
:100370008093D9011092B40161E082E10E94D9001A
:1003800061E083E10E94D900E9EBF0E080818E7F9B
:10039000808380818D7F808388E48093B80085E4AA
:1003A0008093BC000895CF93DF9391E09093700108
:1003B0008823B9F0C091B800D091BA008091BC00F8
:1003C0008A7B8093BC0060E082E10E94D90060E0FB
:1003D00083E10E94D9000E94B501D093BA00C09376
:1003E000B800DF91CF9108950895E09109028091BE
:1003F0000802E81730F4F0E0E05BFE4F808190E007
:1004000008958FEF9FEF089590910902809108025F
:100410002FEF3FEF981748F4E92FF0E0E05BFE4F35
:10042000208130E09F5F90930902C9010895809177
:10043000080290910902891B990B0895CF92DF92CF
:10044000EF92FF920F931F93CF93DF937C01CB0129
:100450008A012091E001222389F0EB016B01C40E97
:10046000D51ECC15DD0569F06991D701ED91FC91A0
:100470000190F081E02DC7010995F3CF642F0E9410
:100480008E01C801DF91CF911F910F91FF90EF90E6
:10049000DF90CF900895CF93DF931F92CDB7DEB753
:1004A00069832091E0012223F9F020910602203295
:1004B00058F021E030E0FC013383228390E080E0BB
:1004C0000F90DF91CF91089580910702E82FF0E01F
:1004D000EF51FE4F998190838F5F80930702809345
:1004E000060281E090E0ECCF61E0CE0101960E942F
:1004F0008E01F7CFCF92DF92EF92FF920F931F936F
:10050000CF93DF93FC01C48121E02093E001C093ED
:10051000010210920702109206028385682B8FE178
:1005200092E00E944B02D0910602D13208F092C0B4
:100530000E9407016B017C018091DA01811165C085
:1005400082E08093DA0181E08093D9018FEF80937C
:10055000D8011092D701D093D601A1EEB1E0E6EB1D
:10056000F1E080E0D81385C01092B5018091B5010B
:10057000CC0FC82BC093B5018091B401813009F034
:100580007CC01092B4010E9407016B017C01809134
:10059000B5018093BB008091DC019091DD01A091B9
:1005A000DE01B091DF01892B8A2B8B2B99F00E9401
:1005B00007010091DC011091DD012091DE013091F5
:1005C000DF016C197D098E099F0906171707280797
:1005D0003907E0F18091BC0083FDD9CF85EC809391
:1005E000BC000E9407016B017C018091DA0182301E
:1005F00009F445C08091D8018F3F61F18091D80105
:10060000803241F18091D80125C08091DC01909128
:10061000DD01A091DE01B091DF01892B8A2B8B2BAC
:1006200009F48ACF0E9407010091DC011091DD01DD
:100630002091DE013091DF016C197D098E099F093F
:10064000061717072807390708F076CF8091DB01D6
:100650000E94D30110920702109206021092E0014C
:10066000DF91CF911F910F91FF90EF90DF90CF908E
:1006700008959D9191938F5F75CF85EEB0CF809156
:10068000DC019091DD01A091DE01B091DF01892BA9
:100690008A2B8B2B09F4A9CF0E9407010091DC0162
:1006A0001091DD012091DE013091DF016C197D098F
:1006B0008E099F09061717072807390708F095CFF5
:1006C000C5CF90E080E008958F929F92AF92BF9245
:1006D0000F931F93CF93DF93CDB7DEB7A1970FB6DC
:1006E000F894DEBF0FBECDBF19A2423008F44AE035
:1006F0008E010F5D1F4F842E912CB12CA12CA501D2
:1007000094010E946808E62FB901CA01EA3044F555
:10071000E05DD801EE938D01232B242B252B79F757
:1007200090E080E0109769F0FD0101900020E9F76A
:100730003197AF014A1B5B0BBD018BE292E00E9437
:100740006001A1960FB6F894DEBF0FBECDBFDF915A
:10075000CF911F910F91BF90AF909F908F90089570
:10076000E95CD7CFFC0101900020E9F73197AF0198
:10077000481B590BBC018BE292E00C9460010F9373
:100780001F93CF938C01C62F0E947A026C2F646056
:10079000C8010E947A026C2F6B7FC8010E947A0206
:1007A00083EC90E00197F1F7CF911F910F9108959D
:1007B0000F931F93CF93DF938C01D62FC42F607FAD
:1007C000642B0E94BF0380E1D89FB00111246C2BE1
:1007D000C801DF91CF911F910F910C94BF03CF936C
:1007E000DF93CDB7DEB728970FB6F894DEBF0FBE04
:1007F000CDBF98E0E3E1F1E0DE01119601900D92AA
:100800009A95E1F790913302961708F46FEF262F2F
:1008100030E0220F331F41E050E04C0F5D1F240FEA
:10082000351FF9016081680F606840E08BE292E05B
:1008300028960FB6F894DEBF0FBECDBFDF91CF91E3
:100840000C94D80340E061E08BE292E00E94D80370
:100850008BE39FE10197F1F7089541E00E94D803EF
:1008600081E090E00895CF92DF92EF92FF926C01C9
:10087000990FEE08FF08F7FE16C041E06DE28BE22B
:1008800092E00E94D80366277727CB016C197D0977
:100890008E099F094AE00E9464030196FF90EF9041
:1008A000DF90CF9008954AE0C701B601FF90EF9026
:1008B000DF90CF900C94640385ED8093BC00809111
:1008C000DC019091DD01A091DE01B091DF0107967E
:1008D000A11DB11D23E0B695A795979587952A95FB
:1008E000D1F72091BC0024FD03C01092DA010895D5
:1008F0004091DC015091DD016091DE017091DF01DA
:10090000452B462B472B69F30097A105B10541F014
:100910002AE22A95F1F700C00197A109B109E1CFB8
:100920008091DB010C94D3011F920F920FB60F92AE
:1009300011242F933F938F939F93AF93BF938091F5
:10094000170290911802A0911902B0911A023091E9
:10095000160223E0230F2D3758F50196A11DB11D76
:10096000209316028093170290931802A093190205
:10097000B0931A0280911B0290911C02A0911D025B
:10098000B0911E020196A11DB11D80931B02909390
:100990001C02A0931D02B0931E02BF91AF919F91C4
:1009A0008F913F912F910F900FBE0F901F90189530
:1009B00026E8230F0296A11DB11DD2CF1F920F92E0
:1009C0000FB60F9211242F933F934F935F936F9322
:1009D0007F938F939F93AF93BF93EF93FF938091F8
:1009E000B900887F803609F44AC0F0F5883209F4EE
:1009F000A7C018F5803109F49BC0B8F4882309F426
:100A0000F9C0883009F494C0FF91EF91BF91AF9184
:100A10009F918F917F916F915F914F913F912F9116
:100A20000F900FBE0F901F901895883109F488C061
:100A3000803251F78093D80114C0803409F49DC0EE
:100A400040F48033B9F38833F9F68093D80185EC0C
:100A5000B0C0803509F485C0883509F496C0883463
:100A600099F60E945C04D0CF883909F48CC038F51F
:100A7000883729F050F4883611F0803729F683E062
:100A80008093DA011092B30157C0883809F47BC013
:100A9000803919F0803809F0B7CF8091B3018032E6
:100AA00008F071C0E091B30181E08E0F8093B30133
:100AB0008091BB00F0E0ED56FE4F80833DC0803B4F
:100AC00039F0E0F4803A09F479C0883A09F09CCF13
:100AD00084E08093DA011092920110929101E091EA
:100AE0000402F091050209958091910181110FC0D6
:100AF00081E0809391011092710109C0803C09F45A
:100B0000A6CF883C09F4A3CF883B09F07DCFE091C4
:100B1000920181E08E0F80939201F0E0EF58FE4F3A
:100B200080818093BB00909192018091910129C0B6
:100B30008091B5018093BB0085EC8093BC0064CFAD
:100B40009091D7018091D601981758F5E091D7017F
:100B500081E08E0F8093D701F0E0EA54FE4F808150
:100B6000E9CFE091D70181E08E0F8093D70180918A
:100B7000BB00F0E0EA54FE4F80839091D701809152
:100B8000D6019817C8F285E8D8CFE091D70181E067
:100B90008E0F8093D7018091BB00F0E0EA54FE4FA6
:100BA00080838091D90181115CCF81E08093B40171
:100BB00084EA8093BC001092DA0126CF85EC809302
:100BC000BC001092DA018091B301803230F4E091E0
:100BD000B301F0E0ED56FE4F10826091B30170E07A
:100BE000E0910202F091030283E991E009951092ED
:100BF000B3010ACF1092D80134CFEFE1F2E01382B3
:100C0000128288EE93E0A0E0B0E084839583A6830F
:100C1000B7838FE191E091838083EBE2F2E013826E
:100C2000128281E391E09183808387E2848380E173
:100C3000818782E0828713860895789484B58260E4
:100C400084BD84B5816084BD85B5826085BD85B570
:100C5000816085BD80916E00816080936E001092EE
:100C60008100809181008260809381008091810069
:100C700081608093810080918000816080938000FA
:100C80008091B10084608093B1008091B000816058
:100C90008093B00080917A00846080937A00809184
:100CA0007A00826080937A0080917A0081608093DC
:100CB0007A0080917A00806880937A001092C10057
:100CC0001092090210920802109207021092060276
:100CD0000E94B5018EE591E0909305028093040295
:100CE0008FE591E09093030280930202109230020C
:100CF00080913502823018F098E090933002809312
:100D0000330262E370E080E090E00E942C01609189
:100D100036028BE292E00E947A0268EE73E080E095
:100D200090E00E942C0160E38BE292E00E94BF03FE
:100D3000CBE4D6E4CE010197F1F760E38BE292E0D9
:100D40000E94BF032197F1F760E38BE292E00E94DB
:100D5000BF0383E592E00197F1F760E28BE292E056
:100D60000E94BF0360913002606240E08BE292E03B
:100D70000E94D80384E08093310240E06CE08BE273
:100D800092E00E94D8030E94220482E08093320203
:100D900040E066E08BE292E00E94D80340E062E02F
:100DA0008BE292E00E94D8038BE39FE10197F1F779
:100DB00088E08093360260E08BE292E00E947A0243
:100DC00040E060E48BE292E00E94D803C8E0D1E00A
:100DD00069918BE292E00E942D0421E0C031D2079C
:100DE000B9F740E068E48BE292E00E94D803C0E0EB
:100DF000D1E008E011E069918BE292E00E942D04BD
:100E00000C171D07C1F7ECE9F0E02491E8E8F0E0E9
:100E100084918823C1F090E0880F991FFC01E85964
:100E2000FF4FC591D491FC01EE58FF4FA591B491AD
:100E30009FB7F8943881822F809583238883EC9123
:100E4000E22BEC939FBF61E080E00E94EF0360E043
:100E50008BE292E00E942D0400E010E0CFE0D0E0B1
:100E6000EE24E394F12C80911201882309F429C126
:100E70000E94B500892B71F58091140290911502A2
:100E8000892B41F5F0921502E09214022FB7F894E5
:100E90008091170290911802A0911902B0911A0244
:100EA0002FBF8093100290931102A0931202B0936F
:100EB000130261E080E00E94EF038AE491E00E9467
:100EC000B20360E080E00E94EF0360E08BE292E01A
:100ED0000E942D048091140290911502019789F5CA
:100EE0002FB7F8948091170290911802A0911902DF
:100EF000B0911A022FBF40911002509111026091DF
:100F0000120270911302841B950BA60BB70B883548
:100F10009240A105B105A8F010921502109214029A
:100F200060E080E00E94EF038AE491E00E94B20357
:100F300061E080E00E94EF0360E08BE292E00E94BB
:100F40002D042FB7F8948091170290911802A09168
:100F50001902B0911A022FBF40910C0250910D025C
:100F600060910E0270910F02841B950BA60BB70BBC
:100F7000883C9105A105B10588F161E080911001DF
:100F80000E94EF038AE491E00E94B2038091100175
:100F900090911101019797FD54C090931101809396
:100FA000100161E0809110010E94EF0361E08BE28B
:100FB00092E00E942D042FB7F8948091170290912F
:100FC0001802A0911902B0911A022FBF80930C024F
:100FD00090930D02A0930E02B0930F028091100126
:100FE00090911101892B09F054C0809114029091C5
:100FF0001502892B09F04DC0109212010E942204A3
:1010000060E080E00E94EF0389E391E00E94B20378
:1010100061E080E00E94EF0384E491E00E94B2036B
:1010200080910A0290910B020E9433040E94B50045
:101030000197A9F464E670E080E090E00E942C0142
:10104000F5CFD0931101C093100180910A029091C5
:101050000B02019690930B0280930A02A2CF10928A
:101060000B0210920A02D0931101C093100110924A
:101070001502109214020E94220461E080E00E9496
:10108000EF0360E08BE292E00E942D0481E0809308
:10109000120160E08CE00E94EF038CE491E00E947A
:1010A000B20380910A0290910B020A9724F48AE419
:1010B00091E00E94B20380910A0290910B020E947B
:1010C00033040115110509F4CECE0E940000CBCEE9
:1010D000A1E21A2EAA1BBB1BFD010DC0AA1FBB1F3C
:1010E000EE1FFF1FA217B307E407F50720F0A21BAE
:1010F000B30BE40BF50B661F771F881F991F1A941B
:1011000069F760957095809590959B01AC01BD0144
:10111000CF010895EE0FFF1F0590F491E02D099483
:04112000F894FFCF71
:101124000414141414170C040000070517140E00FB
:101134000F00010000400014005400000000004BA8
:10114400021E026103F40117020402F5010000000B
:10115400002D04600161038D0147616D65204F76A8
:101164006572210053636F72653A2000533A0000A0
:00000001FF
